{
  "_format": "hh-sol-artifact-1",
  "contractName": "InjPassCollectible",
  "sourceName": "src/contract/InjPassCollectible.sol",
  "abi": [
    {
      "inputs": [],
      "stateMutability": "nonpayable",
      "type": "constructor"
    },
    {
      "anonymous": false,
      "inputs": [
        {
          "indexed": true,
          "internalType": "address",
          "name": "previousAdmin",
          "type": "address"
        },
        {
          "indexed": true,
          "internalType": "address",
          "name": "newAdmin",
          "type": "address"
        }
      ],
      "name": "AdminTransferred",
      "type": "event"
    },
    {
      "anonymous": false,
      "inputs": [
        {
          "indexed": true,
          "internalType": "uint256",
          "name": "tokenId",
          "type": "uint256"
        },
        {
          "indexed": false,
          "internalType": "string",
          "name": "newUri",
          "type": "string"
        }
      ],
      "name": "MetadataUpgraded",
      "type": "event"
    },
    {
      "anonymous": false,
      "inputs": [
        {
          "indexed": true,
          "internalType": "uint256",
          "name": "tokenId",
          "type": "uint256"
        }
      ],
      "name": "TicketCheckedIn",
      "type": "event"
    },
    {
      "anonymous": false,
      "inputs": [
        {
          "indexed": true,
          "internalType": "uint256",
          "name": "tokenId",
          "type": "uint256"
        },
        {
          "indexed": true,
          "internalType": "address",
          "name": "buyer",
          "type": "address"
        },
        {
          "indexed": false,
          "internalType": "string",
          "name": "eventId",
          "type": "string"
        }
      ],
      "name": "TicketPurchased",
      "type": "event"
    },
    {
      "inputs": [],
      "name": "admin",
      "outputs": [
        {
          "internalType": "address",
          "name": "",
          "type": "address"
        }
      ],
      "stateMutability": "view",
      "type": "function"
    },
    {
      "inputs": [
        {
          "internalType": "address",
          "name": "_owner",
          "type": "address"
        }
      ],
      "name": "balanceOf",
      "outputs": [
        {
          "internalType": "uint256",
          "name": "",
          "type": "uint256"
        }
      ],
      "stateMutability": "view",
      "type": "function"
    },
    {
      "inputs": [
        {
          "internalType": "address",
          "name": "",
          "type": "address"
        }
      ],
      "name": "balances",
      "outputs": [
        {
          "internalType": "uint256",
          "name": "",
          "type": "uint256"
        }
      ],
      "stateMutability": "view",
      "type": "function"
    },
    {
      "inputs": [],
      "name": "name",
      "outputs": [
        {
          "internalType": "string",
          "name": "",
          "type": "string"
        }
      ],
      "stateMutability": "view",
      "type": "function"
    },
    {
      "inputs": [],
      "name": "nextTokenId",
      "outputs": [
        {
          "internalType": "uint256",
          "name": "",
          "type": "uint256"
        }
      ],
      "stateMutability": "view",
      "type": "function"
    },
    {
      "inputs": [
        {
          "internalType": "uint256",
          "name": "_tokenId",
          "type": "uint256"
        }
      ],
      "name": "ownerOf",
      "outputs": [
        {
          "internalType": "address",
          "name": "",
          "type": "address"
        }
      ],
      "stateMutability": "view",
      "type": "function"
    },
    {
      "inputs": [
        {
          "internalType": "string",
          "name": "_eventId",
          "type": "string"
        },
        {
          "internalType": "uint256",
          "name": "_seatNumber",
          "type": "uint256"
        },
        {
          "internalType": "uint256",
          "name": "_price",
          "type": "uint256"
        },
        {
          "internalType": "string",
          "name": "_initialUri",
          "type": "string"
        }
      ],
      "name": "purchaseTicket",
      "outputs": [],
      "stateMutability": "nonpayable",
      "type": "function"
    },
    {
      "inputs": [
        {
          "internalType": "address",
          "name": "_newAdmin",
          "type": "address"
        }
      ],
      "name": "setAdmin",
      "outputs": [],
      "stateMutability": "nonpayable",
      "type": "function"
    },
    {
      "inputs": [
        {
          "internalType": "address",
          "name": "_usdcToken",
          "type": "address"
        }
      ],
      "name": "setUsdcToken",
      "outputs": [],
      "stateMutability": "nonpayable",
      "type": "function"
    },
    {
      "inputs": [],
      "name": "symbol",
      "outputs": [
        {
          "internalType": "string",
          "name": "",
          "type": "string"
        }
      ],
      "stateMutability": "view",
      "type": "function"
    },
    {
      "inputs": [
        {
          "internalType": "uint256",
          "name": "",
          "type": "uint256"
        }
      ],
      "name": "ticketRegistry",
      "outputs": [
        {
          "internalType": "string",
          "name": "eventId",
          "type": "string"
        },
        {
          "internalType": "uint256",
          "name": "seatNumber",
          "type": "uint256"
        },
        {
          "internalType": "string",
          "name": "baseUri",
          "type": "string"
        },
        {
          "internalType": "bool",
          "name": "isValidated",
          "type": "bool"
        },
        {
          "internalType": "bool",
          "name": "teamWon",
          "type": "bool"
        }
      ],
      "stateMutability": "view",
      "type": "function"
    },
    {
      "inputs": [
        {
          "internalType": "uint256",
          "name": "",
          "type": "uint256"
        }
      ],
      "name": "tokenOwners",
      "outputs": [
        {
          "internalType": "address",
          "name": "",
          "type": "address"
        }
      ],
      "stateMutability": "view",
      "type": "function"
    },
    {
      "inputs": [
        {
          "internalType": "uint256",
          "name": "_tokenId",
          "type": "uint256"
        }
      ],
      "name": "tokenURI",
      "outputs": [
        {
          "internalType": "string",
          "name": "",
          "type": "string"
        }
      ],
      "stateMutability": "view",
      "type": "function"
    },
    {
      "inputs": [
        {
          "internalType": "uint256",
          "name": "_tokenId",
          "type": "uint256"
        },
        {
          "internalType": "string",
          "name": "_victoryUri",
          "type": "string"
        }
      ],
      "name": "upgradeToVictoryMetadata",
      "outputs": [],
      "stateMutability": "nonpayable",
      "type": "function"
    },
    {
      "inputs": [],
      "name": "usdcToken",
      "outputs": [
        {
          "internalType": "contract IERC20",
          "name": "",
          "type": "address"
        }
      ],
      "stateMutability": "view",
      "type": "function"
    },
    {
      "inputs": [
        {
          "internalType": "uint256",
          "name": "_tokenId",
          "type": "uint256"
        }
      ],
      "name": "validateGateEntry",
      "outputs": [],
      "stateMutability": "nonpayable",
      "type": "function"
    }
  ],
  "bytecode": "0x60c0604052601e60809081527f496e6a5061737320576f726c642043757020436f6c6c65637469626c6573000060a0526000906200003e908262000144565b50604080518082019091526007815266494e4a5041535360c81b60208201526001906200006c908262000144565b503480156200007a57600080fd5b50600280546001600160a01b0319908116909155600380549091163317905562000210565b634e487b7160e01b600052604160045260246000fd5b600181811c90821680620000ca57607f821691505b602082108103620000eb57634e487b7160e01b600052602260045260246000fd5b50919050565b601f8211156200013f57600081815260208120601f850160051c810160208610156200011a5750805b601f850160051c820191505b818110156200013b5782815560010162000126565b5050505b505050565b81516001600160401b038111156200016057620001606200009f565b6200017881620001718454620000b5565b84620000f1565b602080601f831160018114620001b05760008415620001975750858301515b600019600386901b1c1916600185901b1785556200013b565b600085815260208120601f198616915b82811015620001e157888601518255948401946001909101908401620001c0565b5085821015620002005787850151600019600388901b60f8161c191681555b5050505050600190811b01905550565b610f0480620002206000396000f3fe608060405234801561001057600080fd5b50600436106101005760003560e01c8063704b6c021161009757806395d89b411161006657806395d89b4114610246578063c87b56dd1461024e578063f851a44014610261578063f8a14f461461027457600080fd5b8063704b6c02146101ee57806370a082311461020157806375794a3c1461022a57806387e6bc301461023357600080fd5b80633bbb5fc9116100d35780633bbb5fc914610191578063548df038146101a45780635d886f22146101c85780636352211e146101db57600080fd5b806306fdde03146101055780630c0dbe061461012357806311eac8551461013857806327e235e314610163575b600080fd5b61010d61029d565b60405161011a9190610ade565b60405180910390f35b610136610131366004610b9b565b61032b565b005b60025461014b906001600160a01b031681565b6040516001600160a01b03909116815260200161011a565b610183610171366004610c12565b60076020526000908152604090205481565b60405190815260200161011a565b61013661019f366004610c3b565b610547565b6101b76101b2366004610c3b565b610619565b60405161011a959493929190610c54565b6101366101d6366004610c12565b61075d565b61014b6101e9366004610c3b565b6107a9565b6101366101fc366004610c12565b610814565b61018361020f366004610c12565b6001600160a01b031660009081526007602052604090205490565b61018360045481565b610136610241366004610c99565b6108f0565b61010d610983565b61010d61025c366004610c3b565b610990565b60035461014b906001600160a01b031681565b61014b610282366004610c3b565b6006602052600090815260409020546001600160a01b031681565b600080546102aa90610ce0565b80601f01602080910402602001604051908101604052809291908181526020018280546102d690610ce0565b80156103235780601f106102f857610100808354040283529160200191610323565b820191906000526020600020905b81548152906001019060200180831161030657829003601f168201915b505050505081565b60008211801561034557506002546001600160a01b031615155b1561040d576002546040516323b872dd60e01b8152336004820152306024820152604481018490526001600160a01b03909116906323b872dd906064016020604051808303816000875af11580156103a1573d6000803e3d6000fd5b505050506040513d601f19601f820116820180604052508101906103c59190610d1a565b61040d5760405162461bcd60e51b81526020600482015260146024820152731554d110c81d1c985b9cd9995c8819985a5b195960621b60448201526064015b60405180910390fd5b6004546040805160a081018252868152602080820187905281830185905260006060830181905260808301819052848152600590915291909120815181906104559082610d8b565b5060208201516001820155604082015160028201906104749082610d8b565b5060608201516003909101805460809093015115156101000261ff00199215159290921661ffff1990931692909217179055600081815260066020908152604080832080546001600160a01b031916339081179091558352600790915281208054600192906104e4908490610e61565b9091555050600480549060006104f983610e74565b9190505550336001600160a01b0316817f0be88f0b34daa9747135069401f94bc668bacf955fd6570818359695fbb96704876040516105389190610ade565b60405180910390a35050505050565b6003546001600160a01b031633146105715760405162461bcd60e51b815260040161040490610e8d565b60008181526005602052604090206003015460ff16156105d35760405162461bcd60e51b815260206004820152601b60248201527f496e6a506173733a20416c726561647920636865636b656420696e00000000006044820152606401610404565b600081815260056020526040808220600301805460ff191660011790555182917f56c73f395ba81ced6e85b15972ebec37c63c8ad3ffada001d131f59b495c30bb91a250565b60056020526000908152604090208054819061063490610ce0565b80601f016020809104026020016040519081016040528092919081815260200182805461066090610ce0565b80156106ad5780601f10610682576101008083540402835291602001916106ad565b820191906000526020600020905b81548152906001019060200180831161069057829003601f168201915b5050505050908060010154908060020180546106c890610ce0565b80601f01602080910402602001604051908101604052809291908181526020018280546106f490610ce0565b80156107415780601f1061071657610100808354040283529160200191610741565b820191906000526020600020905b81548152906001019060200180831161072457829003601f168201915b5050506003909301549192505060ff8082169161010090041685565b6003546001600160a01b031633146107875760405162461bcd60e51b815260040161040490610e8d565b600280546001600160a01b0319166001600160a01b0392909216919091179055565b6000818152600660205260408120546001600160a01b03168061080e5760405162461bcd60e51b815260206004820152601a60248201527f496e6a506173733a204e6f6e6578697374656e7420746f6b656e0000000000006044820152606401610404565b92915050565b6003546001600160a01b0316331461083e5760405162461bcd60e51b815260040161040490610e8d565b6001600160a01b0381166108945760405162461bcd60e51b815260206004820152601860248201527f496e6a506173733a20496e76616c6964206164647265737300000000000000006044820152606401610404565b6003546040516001600160a01b038084169216907ff8ccb027dfcd135e000e9d45e6cc2d662578a8825d4c45b5e32e0adf67e79ec690600090a3600380546001600160a01b0319166001600160a01b0392909216919091179055565b6003546001600160a01b0316331461091a5760405162461bcd60e51b815260040161040490610e8d565b600082815260056020526040902060038101805461ff0019166101001790556002016109468282610d8b565b50817fc8b5565e7860420b20cabdac90e8275bc25640c5bcb772b18867e2f26309e39b826040516109779190610ade565b60405180910390a25050565b600180546102aa90610ce0565b6000818152600660205260409020546060906001600160a01b03166109f75760405162461bcd60e51b815260206004820152601a60248201527f496e6a506173733a204e6f6e6578697374656e7420746f6b656e0000000000006044820152606401610404565b60008281526005602052604090206002018054610a1390610ce0565b80601f0160208091040260200160405190810160405280929190818152602001828054610a3f90610ce0565b8015610a8c5780601f10610a6157610100808354040283529160200191610a8c565b820191906000526020600020905b815481529060010190602001808311610a6f57829003601f168201915b50505050509050919050565b6000815180845260005b81811015610abe57602081850181015186830182015201610aa2565b506000602082860101526020601f19601f83011685010191505092915050565b602081526000610af16020830184610a98565b9392505050565b634e487b7160e01b600052604160045260246000fd5b600082601f830112610b1f57600080fd5b813567ffffffffffffffff80821115610b3a57610b3a610af8565b604051601f8301601f19908116603f01168101908282118183101715610b6257610b62610af8565b81604052838152866020858801011115610b7b57600080fd5b836020870160208301376000602085830101528094505050505092915050565b60008060008060808587031215610bb157600080fd5b843567ffffffffffffffff80821115610bc957600080fd5b610bd588838901610b0e565b955060208701359450604087013593506060870135915080821115610bf957600080fd5b50610c0687828801610b0e565b91505092959194509250565b600060208284031215610c2457600080fd5b81356001600160a01b0381168114610af157600080fd5b600060208284031215610c4d57600080fd5b5035919050565b60a081526000610c6760a0830188610a98565b8660208401528281036040840152610c7f8187610a98565b941515606084015250509015156080909101529392505050565b60008060408385031215610cac57600080fd5b82359150602083013567ffffffffffffffff811115610cca57600080fd5b610cd685828601610b0e565b9150509250929050565b600181811c90821680610cf457607f821691505b602082108103610d1457634e487b7160e01b600052602260045260246000fd5b50919050565b600060208284031215610d2c57600080fd5b81518015158114610af157600080fd5b601f821115610d8657600081815260208120601f850160051c81016020861015610d635750805b601f850160051c820191505b81811015610d8257828155600101610d6f565b5050505b505050565b815167ffffffffffffffff811115610da557610da5610af8565b610db981610db38454610ce0565b84610d3c565b602080601f831160018114610dee5760008415610dd65750858301515b600019600386901b1c1916600185901b178555610d82565b600085815260208120601f198616915b82811015610e1d57888601518255948401946001909101908401610dfe565b5085821015610e3b5787850151600019600388901b60f8161c191681555b5050505050600190811b01905550565b634e487b7160e01b600052601160045260246000fd5b8082018082111561080e5761080e610e4b565b600060018201610e8657610e86610e4b565b5060010190565b60208082526021908201527f496e6a506173733a204f6e6c792061646d696e206167656e7420616c6c6f77656040820152601960fa1b60608201526080019056fea2646970667358221220e1134ec8095fd9353ce81a90ff436dd8842ab907fc3319cff83ff91d6f61f9de64736f6c63430008140033",
  "linkReferences": {},
  "deployedLinkReferences": {}
}